:400000000080002011000000911200009112000008B5044B1A6803F53F5302331A6001F039F900BFFA46004010B5054C237833B9044B13B10448AFF300800123237010BDFE
:400040003881FF1F00000000B4320000084B10B51BB108480849AFF300800848036803B910BD074B002BFBD0BDE81040184700BF00000000B43200003C81FF1F0881FF1F15
:4000800000000000064A136801331360B3F5967F04D1134601225A6000221A60704700BF5481FF1F064A936801339360B3F5617F04D113460122DA6000229A60704700BFEA
:4000C0005481FF1F054A136901331361322B04D1134601225A6100221A6170475481FF1F054A936901339361962B04D113460122DA6100229A6170475481FF1F064A136A96
:400100000133136240F24C42934204D1024B01225A6200221A6270475481FF1F064A936A01339362B3F5167F04D113460122DA6200229A62704700BF5481FF1F08B501F0C3
:400140009DFC98B101F0B2FC562803D10122084B1A7002E00022064B1A70412803D10122044B1A7008BD0022024B1A7008BD00BFF181FF1FCB81FF1F08B501F08BFC0028FB
:40018000FBD0064B1B7813B1562001F063FC044B1B7813B1412001F05DFC08BD3382FF1F9881FF1F08B5134B1B783BB10022124B1A6002F051FD114802F068FF104B1B7873
:4001C00033B102F0EFFC00220B4B1A6002F058FF094B5B6853B101220A4B1A700022064B5A6002F04DFF02F0DDFC08BD0022054B1A7008BDFF81FF1F5481FF1F8500000014
:40020000C881FF1FE881FF1F08B5144B1B7843B10022134B9A6002F027FC124802F086FF09E0114B1B7833B102F0C4FB00220C4B9A6002F075FF0A4BDB6853B101220B4B72
:400240001A700022064BDA6002F06AFF02F0B2FB08BD0022054B1A7008BD00BF2C82FF1F5481FF1FA5000000B281FF1F2182FF1F08B50E4B1B783BB100220D4B1A6102F016
:40028000C7FD0C4802F02AFF094B5B6953B10122094B1A700022064B5A6102F019FF02F06DFD08BD0022044B1A7008BDE081FF1F5481FF1FC50000003C82FF1F08B50E4BAC
:4002C0001B783BB100220D4B9A6102F001FE0C4802F0B4FE094BDB6953B10122094B1A700022064BDA6102F0A1FE02F0A7FD08BD0022044B1A7008BDEB81FF1F5481FF1FAD
:40030000E1000000B181FF1F08B5134B1B7843B10022124B1A6202F023FC114802F056FF09E0104B1B7833B102F0C0FB00220B4B1A6202F015FC094B5B6A4BB101220A4B52
:400340001A70064B00225A621A6202F009FC08BD0022054B1A7008BDCD81FF1F5481FF1FFD000000EF81FF1F9781FF1F08B50E4B1B783BB100220D4B9A6202F0E9FC0C4875
:4003800002F0FCFE094BDB6A53B10122094B1A700022064BDA6202F0EBFE02F07FFC08BD0022044B1A7008BD4182FF1F5481FF1F1D010000F781FF1F08B500230B4A1370F7
:4003C0000B4A1370FFF7BAFEFFF7ECFEFFF71CFFFFF74EFFFFF772FFFFF796FFFFF7C6FF00F066F8FFF7C8FE08BD00BFF181FF1FCB81FF1F08B562B60020012101F090F97D
:4004000001F0C6F90028FBD001F0D8FA00F004F8FFF7D2FFFCE700BF0122134B1A700023124A1360124A1370124A1370124A1370124A1370124A1370124A1370124A1370EB
:40044000124A1370124A1370124A1370124A1370124A1370124A1370124A1370124A1370124A1370704700BFF981FF1FA881FF1F3182FF1FAF81FF1FFE81FF1FF481FF1F01
:40048000AC81FF1F1382FF1FAD81FF1F3082FF1F9E81FF1F0182FF1F0782FF1F1A82FF1FBB81FF1F3282FF1FC181FF1F2F82FF1F2DE9F04F99B08A4B1B68012B02D1002271
:4004C000884B1A70874B1B78874A1370874A1370874A1370874A1370874A127811460492864A11701BB9049A1AB1012202E0012200E00022D2B211460A92814A1170F1B185
:40050000002280490A7080490A7080490A7080490A7080490A7080490A7080490A7080490A7080490A7080490A7080490A7080490A7080490A7080490A7080490A70804AE2
:400540001278114607927F4A11707F4A107809907E4A107019B1099A1AB9002402E0002400E00124E4B27A4A147014B101216C4A1170784A127811461792774A1170774ACB
:40058000117011B101216D4A1170754A127811461492744A1170744A117011B10121674A1170724A127811460692714A1170714A92F800B0704A82F800B021B1BBF1000FED
:4005C00003D1002202E0002200E00122D2B2114616926A4A117011B10121584A1170684A1370684A127811460192674A1170674A127811460F92664A1170664A12781146BD
:400600001392654A11703BB9019A0AB10F9A2AB9139A2AB1012204E0012202E0012200E00022D2B2154610925C4A1570434A12785B490A7015B11AB1002102E0002100E0E0
:4006400001215FFA81F9574981F80090564909780846059155490870B9F1000F03D0059919B9002002E0002000E00120C0B25049087010B1012529490D704E4909780F46DD
:4006800000914D490F704D490F70244909784C4D297017B119B1002502E0002500E00125EDB2484E3570484E327015B11AB1002702E0002700E00127FEB237460B96434E61
:4006C000BE463770424E367837460396414E377077461FB1039E002E7ED17EE000267CE0A881FF1FF981FF1F1482FF1FB781FF1FDE81FF1F1282FF1F2F82FF1F9681FF1F1E
:40070000BA81FF1F2C82FF1FFF81FF1FE081FF1FEB81FF1F4182FF1FCD81FF1FBE81FF1F2B82FF1FEA81FF1FC881FF1FB281FF1FEF81FF1F9881FF1F9B81FF1F3382FF1F65
:40074000F481FF1FE681FF1FCB81FF1F2E82FF1F3882FF1F0182FF1F1D82FF1FE281FF1FC181FF1FF381FF1FA081FF1FBB81FF1F0E82FF1FF781FF1F0982FF1FB981FF1FA2
:400780003F82FF1FAC81FF1F1882FF1FB181FF1F1B82FF1F1382FF1FDA81FF1F9F81FF1F3D82FF1FC381FF1FF181FF1F3A82FF1F2A82FF1F3182FF1F0F82FF1F2082FF1F2F
:4007C000EC81FF1F0C82FF1FB681FF1F3B82FF1FE881FF1FFD81FF1F0126F6B2DFF860E38EF800602EB14FF0010CDFF858E38EF800C0009F1FB129B94FF0000E04E04FF05C
:40080000000E01E04FF0010E5FFA8EFEDFF838C38CF800E0BEF1000F05D04FF00108DFF82CC38CF8008015B11AB9002502E0002500E00125EDB2DFF818C38CF800502DB1ED
:400840004FF00108DFF804C38CF80080DFF804C39CF800700897DFF800C38CF8007043B94EB9BEF1000F08D14DB9089D4DB1012508E0012506E0012504E0012502E001252A
:4008800000E00025EDB28F4E35708F4E96F800C08E4E86F800C08E4E3678374602968D4EBE4637708C4E37708C4E86F800C0774627B1BCF1000F03D0002602E0002600E0DD
:4008C0000126F6B237461296854EBE463770854E367837461196844E3770774627B1119E2EB94FF0000E04E04FF0000E01E04FF0010E5FFA8EFE7D4E86F800E0BEF1000FC4
:4009000004D04FF001087A4E86F8008025B1BCF1000F03D0002602E0002600E00126F6B2DFF8388288F80060DFF8C48198F80080DFF82CA28AF8008015B1BCF1000F05D1F7
:4009400036B1B8F1000F05D1002504E0012502E0002500E00125EDB2DFF808A28AF8005025B14FF0010A634F87F800A02DB90B9D2DB1039D2DB1002504E0012502E00025C3
:4009800000E00125EDB22F460B955B4D2F7026B1B8F1000F03D0002502E0002500E00125EDB22E460C95554D2E70554D2B70554D2D782E460395544D2E70544D2E78544DF7
:4009C0002E704CB9079C0CB1099C3CB143B9039C44B14EB9002408E0012406E0012404E0012402E0002400E00124E4B2494D2C70494D2A7014B11AB1002502E0002500E0E7
:400A00000125EDB2454F3D70454F397004B11AB925B129B9002404E0012402E0002400E00124E4B23F4F3C7024B14FF001083E4F87F8008024B9039C24B12EB1002404E04A
:400A4000012402E0002400E00124E4B226460D94364C267015B119B1002402E0002400E00124E4B225460E94314C257020B9109820B12AB9002004E0012002E0002000E0DB
:400A80000120C0B22B4C207010B101252A4C257028B9019828B10F9828B1002004E0012002E0002000E00120C0B204460F9023480470B9F1000F57D00598002856D000208A
:400AC00055E000BFA181FF1F2B82FF1FCC81FF1FAD81FF1F9581FF1FDC81FF1F1982FF1FA481FF1F2182FF1F9481FF1F0082FF1F9881FF1FFF81FF1FDB81FF1F0A82FF1F08
:400B00001C82FF1FFE81FF1FFB81FF1F3C82FF1FD381FF1FC081FF1F1682FF1FD681FF1FD281FF1FCA81FF1FE081FF1F9A81FF1F2482FF1F2682FF1FEB81FF1F3682FF1F6E
:400B40002282FF1FEA81FF1FDF81FF1FC881FF1FA581FF1FAF81FF1FE981FF1FBC81FF1FB481FF1F9981FF1F002000E00120C0B2044610908E4804708E480370029820B1CA
:400B8000BCF1000F03D1002002E0002000E00120C0B2894C207010B10125884C2570884C247825461594874C25703BB940B9BEF1000F07D1159838B1012006E0012004E04A
:400BC000012002E0012000E00020C0B27E4C20707E4C217010B119B1002402E0002400E00124E4B27A4D2C707A4D2A7000B119B924B12AB9002004E0012002E0002000E054
:400C00000120C0B2744D287010B10126734D2E7028B9129828B1119828B1002004E0012002E0002000E00120C0B2054611906C48057014B11AB1002002E0002000E001203A
:400C4000C0B20446129067480470674803706748007804460990664804701BB9099818B1012002E0012000E00020C0B2614C2070614C217010B119B1002502E0002500E0BF
:400C80000125EDB25D4C25705D4C227005B11AB920B129B9002604E0012602E0002600E00126F6B25748067016B101245648047056480078564C2070564C2070564C227011
:400CC00010B11AB1002402E0002400E00124E4B2524F3C70524F397014B119B9002702E0002700E00127FFB2DFF83CE18EF800702FB14FF0010CDFF834E18EF800C018B17B
:400D00002AB94FF0000E04E04FF0000E01E04FF0010E5FFA8EFEDFF818C18CF800E0BEF1000F05D04FF00108DFF800C18CF8008014B119B1002402E0002400E00124E4B25F
:400D4000DFF8F0C08CF80040DFF8ECC09CF80080DFF8E8C08CF8008066B977B9BEF1000F0ED1179E7EB98CB1B8F1000F11D04FF0000C10E04FF0010C0DE04FF0010C0AE0B6
:400D80004FF0010C07E04FF0010C04E04FF0000C01E04FF0010C5FFA8CFC224E86F800C024B1B8F1000F4BD100244AE0002448E0F281FF1F0282FF1FC781FF1FB281FF1F9C
:400DC0003082FF1F0382FF1FC481FF1F0882FF1FB081FF1FE781FF1FD081FF1F2C82FF1F3482FF1F2D82FF1FCE81FF1F0782FF1FB881FF1FDD81FF1F3582FF1FE381FF1F86
:400E00009D81FF1F0482FF1FCD81FF1F9E81FF1FBD81FF1FB381FF1FAE81FF1FE481FF1F1582FF1F0682FF1F9C81FF1FEF81FF1F0B82FF1FF081FF1F9781FF1F1082FF1F67
:400E40000124E4B2904E347014B101278F4E37701DB12AB14FF0000E04E04FF0000E01E04FF0010E5FFA8EFE894D85F800E0894D2B70894D95F80090884D85F80090884D3B
:400E800085F800B04BB9169D4DB9B9F1000F08D0BBF1000F07D1002606E0012604E0012602E0002600E00126F6B27E4D2E707E4D297016B119B1002502E0002500E001259F
:400EC000EDB27A4F3D707A4F3A707A4F97F80080794F87F80080794F87F80080784F3970B8F1000F02D019B1002702E0002700E00127FFB20597DFF800A28AF80070DFF879
:400F0000FCA18AF8002005B162B9149F67B906B161B9059E06B15AB9B8F1000F0AD059B900260AE0012608E0012606E0012604E0012602E0002600E00126F6B261490E70AF
:400F400026B14FF0010A604981F800A0B9F1000F04D0BBF1000F03D0002102E0002100E00121C9B2DFF898A18AF80010DFF894A19AF800A0554F87F800A011B1BAF1000FB3
:400F800002D01EB1012602E0012600E00026F6B24F4F3E70069F17B1BBF1000F06D041B1BAF1000F08D14FF0000B07E04FF0010B04E04FF0000B01E04FF0010B5FFA8BFB2E
:400FC000444981F800B0059911B11AB1002102E0002100E00121C9B23F4F39703F4F87F800A005B12AB131B1BAF1000F05D0002504E0012502E0002500E00125EDB2384A2C
:40100000157021B1BAF1000F03D1002202E0002200E00122D2B233490A70009919B9089919B1002702E0002700E001272E490F70039919B9079919B1002702E0002700E03C
:4010400001272A490F70019919B9139919B1002702E0002700E0012725490F70029919B9159919B1002702E0002700E0012721490F7038B90999002946D11799002945D088
:40108000002744E0002742E00D82FF1FEF81FF1FFC81FF1FFA81FF1F1A82FF1F3782FF1F3982FF1FD581FF1FF581FF1F1182FF1F4082FF1F3282FF1F4282FF1FD781FF1F00
:4010C000BF81FF1F2382FF1F4182FF1FD881FF1FE581FF1F3E82FF1FC281FF1FD481FF1F2782FF1F2982FF1F2882FF1FEE81FF1FD181FF1FCF81FF1F1782FF1FB581FF1F73
:401100001F82FF1FEA81FF1F002700E001274B490F70B9F1000F08D1B8F1000F07D1069939B9149939B1002706E0002704E0002702E0002700E0012741490F700099F1B93F
:401140000899F1B90399F1B90799F1B90199F1B91399F1B90299F1B91599F1B9F8B90999F9B9B9F1000F1ED1B8F1000F1DD10699E9B91499E9B91799E9B100211CE00021F2
:401180001AE0002118E0002116E0002114E0002112E0002110E000210EE000210CE000210AE0002108E0002106E0002104E0002102E0002100E00121224801700499B1FA47
:4011C00081F149092048017020499DF82C0008701F499DF8300008701E499DF8340008701D499DF8380008701C499DF83C0008701B499DF8400008701A499DF844000870A5
:4012000019499DF848000870184981F800C018490C70184981F800E017490E70174981F800B017490D7017490A70174A9DF828101170164A136019B0BDE8F08F2582FF1F74
:40124000C981FF1FED81FF1F0582FF1F3182FF1FAF81FF1FFE81FF1FF481FF1FAC81FF1F1382FF1FAD81FF1F3082FF1F9E81FF1F0182FF1F0782FF1F1A82FF1FBB81FF1FD3
:401280003282FF1FC181FF1F2F82FF1FA881FF1FFEE700BF08B5104E104D16E029686B68AC68002204E051F8040B43F8040B0432A242F8D1E868002203E0002143F8041B01
:4012C00004328242F9D11035013E002EE6D101F0B7FFFFF78FF8FEE7010000008034000008B5124A124B1A60124A136843F40073136000230AE0032B03D80F4A52F8231033
:4013000000E00E490E4A42F8231001332F2BF2D90C4B1A780C4B1A70094A0C4B1A6000F0A3F800220A4B1A6008BD00BF0004FA050CED00E014ED00E000000000911200000A
:401340000080FF1FBC7600400481FF1F08ED00E00081FF1FFEE700BFF0B40022174611E050F82760F3B226F0FF0608E001EB420511F812406D78A5550132013BDBB2002B83
:40138000F4D10137182FEBD9F0BC7047064B1B78DBB203F00701054A11701B09013213704422034B1A707047CF0100496E5800407658004008B50A46002101F072FF08BD35
:4013C00038B506221E4B1A705222A3F580731A701C4B1B78DBB21C4A13704FF4E1621B4B1A8041F25122023B1A80002419250CE0174B1B7803F0010343EA440404F003043F
:401400004FF4F07001F07CFD013D0DB1032CEFD115B90320FFF79EFF0E4A4FF4807313800723137000230C490B704820023108701370053213700222084B1A7038BD00BF6A
:40144000004300400F010049A1460040224200402542004004400040064000400140004008B501F013FF08BD38B572B6244A137843F00403137000240CE0224963001A1932
:4014800052000A4423445B00C8589188FFF792FF0134E4B2072CF0D94FF090401A49FFF75BFF1A4A137843F0020313701032137843F002031370164C237843F04003237049
:4014C000A2F58632513A137843F010031370114811490A22FFF7C4FF104A137843F0080313700F4D61232B70FFF76AFF81232B70FFF74CFF0B4821460E22FFF7B1FF38BDA1
:40150000E8460040B83200006400004803500140A0430040F0510040380200482243004000480040B0430040F8B501F0F1FC0746404A137843F0010313701032137843F0E6
:401540000103137001263C4B1E700225943B1D7002F5E2521B32137803F07F031370002001F0E0FC354C237803F0F9032370344A137803F0DF031370237833432370304624
:4015800001F0D0FC282001F0CDFC2E4B1A7802F07F021A701A7802F0BF021A7023782B432370284601F0BEFC237843F0040323700024254B1C7001331C70384601F0ACFC81
:4015C0001720072101F0CCFC1720204901F0B4FC1820072101F0C4FC18201D4901F0ACFC1520072101F0BCFC15201A4901F0A4FC2046072101F0B4FC2046174901F09CFC9D
:401600003046072101F0ACFC3046144901F094FC2846072101F0A4FC2846114901F08CFC0C20072101F09CFC0C200E4901F084FCF8BD00BFA54300409D60004094430040F6
:4016400012600040F85100408460004049200000191E0000452000008D1F0000C51F0000012000005120000008B5214B18700023204A1370204A1370204A1370204A13705C
:40168000204A1370204A1370204A1370204B4FF400021A604FF080721A604FF400121A6001221A6002221A6004221A6011B1012906D00BE0174A137803F0FE0313700AE0EA
:4016C000144A137843F00103137004E0114A137843F00103137003220F4B1A708022203B1A70012001F00CFC04220C4B1A7008BD5D82FF1F6082FF1F7C82FF1F7F82FF1F15
:401700007482FF1F7E82FF1F8182FF1F5C82FF1F00E100E009600040286000401260004038B505460C46064B1B7823B9FFF7FCFE0122034B1A7028462146FFF795FF38BDED
:401740008481FF1F00230A4A13700A4A13700A4A13700A4A13700A4A13700A4A13700A4A13700322094B1A708022203B1A7070476082FF1F7C82FF1F7F82FF1F7482FF1FB2
:401780007E82FF1F8182FF1F5C82FF1F28600040014B1878704700BF7F82FF1F00EB40008000024B18444078704700BF8482FF1F431EDBB2072B0BD8064B00011A18185C14
:4017C00000F00F00537843EA0020023880B2704700207047FC5F0040431EDBB2072B3BD8F0B4074600EB40039B001C4C2344DB889BB2C3F500739A4207D900EB40039B0021
:401800002344DA88C2F5007292B200EB40039B00124C2344DB7843EA1223114D04012E192B55D3B2737039B909E0CE5C3D010D4C665501339BB200E000239342F5D34300E2
:4018400003449B00054A134400225A705A79D2B20001054B1A54F0BC704700BF8482FF1FFC5F004078600040FE5F0040431EDBB2072B0BD8430003449B00054A1344002258
:401880005A705A79D2B20001024B1A54704700BF8482FF1FFE5F004070B5D9B1054614460E46C8B1082819D8FFF782FFA04203D22846FFF77DFF0446002305E02901094AF5
:4018C000525CF25401339BB2A342F7D32846FFF7CDFF04E0002402E0002400E00024204670BD00BF7860004010B4FF2400220EE00A4B9B5C03EB43039B0009490B449B7852
:40190000DBB2834201D1144602220132D2B2012AEED920465DF8044B704700BF4C82FF1F8C82FF1F10B5204C2079FFF7DDFF237813F0800F0ED06378DBB2212B2FD11B4B03
:4019400007221A80C0EBC000194A1044586000F0D1FA10BD144B5B78DBB2202B02D0222B10D01EE0114A07231380C0EBC00310490B4453600F4A135C43F00103135400F004
:40198000E1FA10BD084B9B780B4A22F81030094A135C43F00203135400F06CF910BD002010BD002010BD00BF006000406882FF1F0C81FF1F4482FF1F5882FF1F10B5002436
:4019C0001F4B1C701F4B1C705C700AE01E4B185DC0B2431EDBB2072B01D8FFF747FF0134E4B2012CF2D9194B1B7813F0FF0F1AD0154B1B7813F0FF0F17D0154B1B7813F02A
:401A0000FF0F14D0114B1B78DBB2082B11D80E4B1B78DBB2082B0ED80D4B1B78DBB2082B0BD8002010BD012010BD012010BD012010BD012010BD012010BD012010BD00BFBC
:401A40008581FF1F4482FF1F5082FF1F4882FF1F4C82FF1F00B583B002A901F8010D054B1B78054AD05C0122FFF7B6FE03B05DF804FB00BF8581FF1F4882FF1F08B5034BF8
:401A80001B78034AD05CFFF789FE08BD8581FF1F5082FF1F08B5034B1B78034AD05CFFF77DFE08BD8581FF1F4882FF1F00B583B0064B1B78064AD05C0DF107010122FFF704
:401AC000EBFE9DF8070003B05DF804FB8581FF1F5082FF1FC37803F0030390F9020000280FDA032B06D002F001030B48C15442F001020EE0C2F380030848C15442F004021C
:401B000007E0032B05D0C2F340030548C15442F002021046704700BF4882FF1F4C82FF1F5082FF1F1C4B19781C4A13880B449BB2138000230EE01A4A51680978C9B21948E8
:401B4000C1545168013151600133DBB21188013989B21180124A128892B20AB1072BEAD90D4A1278D2B2082A00D05BB10E490A7882F080020A700F210C4A117002210C4A30
:401B8000117004E0022209490A7009490A70094A1370014A137070475C82FF1F5E82FF1F6882FF1F00600040F282FF1F7D82FF1F6082FF1F8082FF1F0222074B1A70802296
:401BC000064B1A700F22064B1A700023054A1370054A1370012070476082FF1FF282FF1F7D82FF1F5C82FF1F8082FF1F08B5FFF799FF08BD10B4184B197801F00F01023990
:401C0000C9B2164A13880B449BB21380002010E0134B5C68134A125CD2B222705A6801325A600130C0B20139C9B21A88013A92B21A800B4B1B889BB20BB10029E8D10A4BF1
:401C400019700A4A137883F0800313700B22084B1A705DF8044B7047296000405E82FF1F6882FF1F006000408082FF1FF282FF1F7D82FF1F0623064A1370064A137080226F
:401C8000054B1A700022054B1A700120704700BF6082FF1F7D82FF1FF282FF1F8082FF1F064B9B6843B1054B9A6810709A6804490988518000229A60704700BF6882FF1F83
:401CC0005E82FF1F08B5134B1A78D2B21A701B78DBB213F0800F02D00F4A137008BD0220FFF7DEFF0D4B1B7803F06003202B05D0402B06D043B900F095FC06E001F074FAAD
:401D000003E000F037FE00E0002010B90322024B1A7008BD286000407D82FF1F0060004008B5084B1978084A13880B449BB213800022064B1A700120FFF7B2FF0322044B96
:401D40001A7008BD5C82FF1F5E82FF1F6082FF1F7D82FF1F08B50B4B1B78DBB2042B06D0062B07D0022B0BD1FFF7DAFF08BDFFF741FF08BD0320FFF793FF0322024B1A707E
:401D800008BD00BF6082FF1F7D82FF1F08B50022044B1A700120FFF783FF0322024B1A7008BD00BF6082FF1F7D82FF1F08B50B4B1B7813F0FF0F07D0084A137843F0800373
:401DC00007490B70002313700022064B1A700120FFF766FF0322044B1A7008BD7E82FF1F086000406082FF1F7D82FF1F08B5094B1B78DBB2042B06D0062B07D0022B07D110
:401E0000FFF7F4FE08BDFFF7C1FF08BDFFF7CEFF08BD00BF6082FF1F08B5284B1B78DBB213F0100F48D013F0800F0CD003F00F03012B16D1FFF746FF214B1B7813F0800F57
:401E400011D1012312E013F0400F03D0FFF7CEFF01230BE013F0200F07D0FFF77BFF012304E0002302E0002300E0002323B3134B1B7813F0800F1FD1124B1B78124A1278A8
:401E80001343124A13701278D2B29A4214D10C4B1B78DBB2094A127812F0800F07D1084B1B78DBB2054A1370137803F00F03044A1278D2B29342EAD108BD00BF2860004054
:401EC0007D82FF1FF282FF1F8082FF1F296000400022064B1A80064B9B682BB1044A916800230B7092685380704700BF5E82FF1F6882FF1F08B50F4B1B889BB213B9FFF716
:401F00005BFE15E002220C4B1A7000220B4B1A70FFF7DEFF0A4AD179937943EA0123054A128892B29A4201D9024A1380FFF7FAFD012008BD6882FF1F6082FF1FF282FF1F4F
:401F40000060004008B504220B4B1A7080220B4B1A70FFF7BDFF0A4AD179937943EA0123084A128892B29A4201D9064A13800B22054B1A70012008BD6082FF1FF282FF1F87
:401F8000006000406882FF1F7D82FF1F0A4A137803F0FE031370094B9B7C094B1B7B03F00303012B04D0064AD37B83F08003D3730122034B5A7370470B600040FC5F0040A3
:401FC0008482FF1F0B4A137803F0FD0313700A4B93F82230094B1B7E03F00303012B04D0064AD37E83F08003D3760122034B5A76704700BF0B600040FC5F00408482FF1F4E
:402000000D4A137803F0FB0313700C4B93F832300B4B93F8243003F00303012B06D0084A92F8273083F0800382F827300122044B83F82520704700BF0B600040FC5F0040EE
:402040008482FF1F704700BF08B5FFF77BFB08BD08B500F04BFF08BD70B588B0054603AC174E0FCE0FC43368237035B322232B7003236B7001A800F08BFF002402231AE053
:4020800008AA224412F81C2C08A901EB121111F8141CE954581C00212954981C02F00F0208AE324412F8142C2A54DA1CA9540134E4B20433DBB2212BE2D908B070BD00BF96
:4020C000E832000010B401223DE0114613010C242148C45402EB42039B00204803445B7913F0FF0F12D002EB42039B0003441B7913F0800F04D01001194B03449C700AE0A3
:402100001001174B03440820987004E01001144B0344802098704B000B449B000F480344DC88E4B208010C4901448C71D888C0F30720C871D888C0B20871DB88C3F3072304
:402140004B710132D2B2082ABFD9FF22054B1A705DF8044B704700BF706000408482FF1FFC5F00400A600040074B1B78074A02EBC30253681A7C824203D903EBC003586949
:4021800070470020704700BF5D82FF1FFC320000F8B5404B1B7813F0FF0F79D03D4B18780138C0B2FFF7E0FF047AC2683A4B1878C0B200236AE01178814264D13749095CE8
:4021C000C9B25578A9425ED1917801F07F01D67806F00306DFF8C8E04D000D44AD000EEB05074FF0000C87F803C092F802C087F804C092F803C00EF805C095883D8192F94D
:402200000250002D0DDA012E01D1072700E00D274D000D44AD00224E35446F7101266E700CE0012E01D1052700E009274D000D44AD001B4E35446F7100266E70DFF868E083
:402240000F010EEB07060125B57001FA05F529448900134D29440D89C5F307250EF807500D89EDB27570CE88F6B20E4D3D44AE71CE88C6F30726EE71CE88F6B22E71C988D2
:40228000C1F30721697108320133DBB2A34292D3F8BD00BF7F82FF1F7482FF1FF082FF1F8482FF1F70600040FC5F0040034B1A78034B03EBC2035868704700BF5D82FF1F09
:4022C000FC32000008B5074B18780138C0B2FFF74BFF28B14268127900EBC203586908BD002008BD7F82FF1F2DE9F84300220EE06F4E53009D18AD00741900217155A17086
:40230000E1702181A172617061710132D2B2082AEED940B90AE000226649CA546649CA540133DBB200E00023012BF4D9634B1B7813F0FF0F00F0B980604B18780138C0B287
:40234000FFF712FF80464368DB7913F0400F05D05B4A137843F00103137004E0584A137803F0FE03137098F808704FF0000901266CE0D8F80C50002464E0AB7803F07F0309
:402380009E425CD1314606EB46039B00484803441B899BB2A888834205D206EB46039B00434A134418812B784248C35CDBB26878834244D195F802C03D484B000B449B0042
:4023C00000EB030E8EF804C095F803E000F803E0EB7803F0030395F90200002811DA012B02D14FF0070C01E04FF00D0CDFF8C0E04B0058188000704480F805C00123437049
:4024000012E0012B02D14FF0050C01E04FF0090C27484FEA410E0EEB01039B00034483F805C0194600234B70AB790A2B01D0022B05D1284631464A46FFF74CFB81460835F0
:402440000134E4B2BC4298D30136F6B2082E90D9D8F80C0000220CE0837803F07F0310F8084B03EB43039B0016490B449C700132D2B2BA42F0D3FFF725FF134B18600023E3
:4024800001210EE00A4C4A00501880002044C380028913449BB203F0010213449BB20131C9B20829EED9FFF70DFEBDE8F88300BF8482FF1FF082FF1F6482FF1F7F82FF1FB8
:4024C0008182FF1F8C82FF1F7882FF1F08B5154B1A7902F07F02531EDBB2072B20D8530013449B0010490B44997841F0010199700021D970597841F0020159701B7913F023
:40250000800F05D01201094B13448D229A7004E01201064B134489229A70FFF7ABFB08BD002008BD006000408482FF1FFC5F0040264B1B7903F07F035A1ED2B2072A43D805
:4025400010B55A001A44920021490A44917801F0FE0191700021D17019017F241D484454517801F0FD015170127912F0800F14D003EB4302920016490A445278D2B2012A1A
:4025800005D11B0102461A440C23937019E01B01104A1A440D23937013E003EB430292000B490A445278D2B2012A05D11B01094A1A440823937004E01B01064A1A440923D3
:4025C0009370FFF757FB10BD00207047006000408482FF1FFC5F004010B50E4B1C79E4B20D4B18780138C0B2FFF7BEFD43681B799C4201D9022C0AD8084A135DDBB2084959
:402600000B55044B9B78DBB21355012010BD002010BD00BF006000407F82FF1FF082FF1F6482FF1F10B59B4B1B78DBB200219A4A118013F0800F00F0AD80964A5278D2B2B8
:402640000A2A00F27281DFE812F06900700170017001700170010B007001920070019A008C4BDB78DBB2012B09D1FFF71FFE4268894B5A6012221A80FFF73CFC10BD854B20
:40268000DB78DBB2022B13D1824B9878FFF76CFD002800F04C8142687F4B5A605A68D1785A68927842EA01221A80FFF723FC10BD784BDB78DBB2032B05D02CE00A781144AF
:4026C0000133DBB201E000237449724A9278D2B29A4203D90A7812F0FF0FEFD16D4B9B7813F0FF0F0BD06B4B9B78DBB26C4A127C934204D16B4C2046FFF7AEFC21460B7862
:4027000013F0FF0F00F015810B78634A13805160FFF7F0FB10BD00F067FD10BD13F0030317D0022B40F007815B490B80594B1B7903F07F0303EB43039B005B4A13449A7831
:40274000D2B25A4B1A7000225A704B60FFF7D2FB10BD514902230B80554B1A78D2B2534B1A7000225A704B60FFF7C4FB10BD4A4B01221A804F4A5A60FFF7BCFB10BD464A8F
:4027800001231380434B1B794B490B445360FFF7B1FB10BD3F4A5278013A0A2A00F2CD80DFE812F04B00CB009600CB000B00CB00CB00CB001300CB003000364B9B78DBB25F
:4027C0003E4A1370FFF756FA10BD324B9B7803F0FF041BB1601EC0B2FFF7C6FC04B110B9002C40F0AC80334B1B78DBB29C4206D0304B1C700120324B1870FFF775FDFFF7DE
:4028000039FA10BDFFF7E8FE002800F09A80214A1379DBB21279D2B22A490A702A4AD25C2549C95CD3B28B4204D00122244B1A70FFF7AEFCFFF71EFA10BD03F00303012BF3
:4028400017D04BB1022B7ED1124B9B7813F0FF0F7BD1FFF76DFE10BD0E4B9B78DBB2012B75D1134A137803F0FD031370FFF702FA10BD084B1B79DBB2012B6AD8054B987834
:402880001B79DBB21149CA5C22EA0002CA54FFF7F1F910BD006000406882FF1F6433000048340000F882FF1F8482FF1F8881FF1F8182FF1F7F82FF1FF082FF1F7E82FF1F12
:4028C0007C82FF1F7482FF1F6482FF1FF482FF1F03F00303012B17D04BB1022B3BD1224B9B7813F0FF0F38D1FFF7F0FD10BD1E4B9B78DBB2012B32D11C4A137843F0020324
:402900001370FFF7B7F910BD174B1B79DBB2012B27D8154B98781B79DBB21549CA5C22EA0002CA54FFF7A6F910BD002010BD002010BD002010BD002010BD002010BD00208F
:4029400010BD002010BD002010BD002010BD002010BD002010BD002010BD002010BD002010BD002010BD00BF006000408182FF1FF482FF1F044B1B7813F0800F01D0024B8F
:402980005B780020704700BF00600040084A137843F0010313701032137843F00103137002F64D32137843F001031370704700BFA3430040084A137803F0FE031370A2F6AC
:4029C0005D32137803F0FE0313701032137803F0FE031370704700BF004F0040014B1870704700BF034F0040014B1880704700BF044F0040014B1880704700BF064F004045
:402A000008B5164A137803F0010313700232137803F0FC031370124B1A7802F0CF021A701A7842F030021A701A7802F0F0021A701A7842F00F021A700A4A137843F001030F
:402A4000137045F6BF50FFF7CFFF45F6BF50FFF7D1FF0820FFF7C2FF08BD00BF004F00400B4F0040014F004008B5054B1B7823B9FFF7C6FF0122024B1A70FFF787FF08BD27
:402A80008C81FF1F084A137843F0040313701032137843F00403137002F66532137843F001031370704700BFA3430040084A137803F0FE031370A2F67532137803F0FB0348
:402AC00013701032137803F0FB031370704700BF184F0040014B1870704700BF1B4F0040014B1880704700BF1C4F0040014B1880704700BF1E4F004008B5164A137803F05A
:402B0000010313700232137803F0FC031370124B1A7802F0CF021A701A7842F030021A701A7802F0F0021A701A7842F00F021A700A4A137843F00103137045F6BF50FFF7E6
:402B4000CFFF45F6BF50FFF7D1FF0820FFF7C2FF08BD00BF184F0040234F0040194F004008B5054B1B7823B9FFF7C6FF0122024B1A70FFF787FF08BD8D81FF1F084A137898
:402B800043F0020313701032137843F00203137002F65932137843F001031370704700BFA3430040084A137803F0FE031370A2F66932137803F0FD0313701032137803F026
:402BC000FD031370704700BF0C4F0040014B1870704700BF0F4F0040014B1880704700BF104F0040014B1880704700BF124F004008B5164A137803F0010313700232137884
:402C000003F0FC031370124B1A7802F0CF021A701A7842F030021A701A7802F0F0021A701A7842F00F021A700A4A137843F00103137045F6BF50FFF7CFFF45F6BF50FFF71D
:402C4000D1FF0820FFF7C2FF08BD00BF0C4F0040174F00400D4F004008B5054B1B7823B9FFF7C6FF0122024B1A70FFF787FF08BD8E81FF1F084A137843F0080313701032C5
:402C8000137843F00803137002F67132137843F001031370704700BFA3430040084A137803F0FE031370A2F68132137803F0F70313701032137803F0F7031370704700BFFF
:402CC000244F0040014B1870704700BF274F0040014B1880704700BF284F0040014B1880704700BF2A4F004008B5164A137803F0010313700232137803F0FC031370124B4A
:402D00001A7802F0CF021A701A7842F030021A701A7802F0F0021A701A7842F00F021A700A4A137843F00103137045F6BF50FFF7CFFF45F6BF50FFF7D1FF0820FFF7C2FF3F
:402D400008BD00BF244F00402F4F0040254F004008B5054B1B7823B9FFF7C6FF0122024B1A70FFF787FF08BD8F81FF1F024A137843F08003137070477F640040024A137849
:402D800003F07F03137070477F640040014B1870704700BF8F640040014B1878704700BF6F640040014B1880704700BF5C680040014B188880B270479C680040014B188004
:402DC000704700BF1C68004008B501E0FFF7F0FFFFF7E2FF10F0080FF8D108BD08B545F6BF50FFF7DFFF45F6BF50FFF7E7FF00F08FF8064A137843F01003137000F08CF80A
:402E0000FFF7E2FF0120FFF7C1FF08BD9F64004008B5054B1B7823B9FFF7E0FF0122024B1A70FFF7A3FF08BD9081FF1F024A137843F08003137070477B640040024A137848
:402E400003F07F03137070477B640040014B1870704700BF8B640040014B1878704700BF6B640040014B1880704700BF54680040014B188880B2704794680040014B18805F
:402E8000704700BF1468004008B501E0FFF7F0FFFFF7E2FF10F0080FF8D108BD08B545F6BF50FFF7DFFF45F6BF50FFF7E7FF00F02FF8064A137843F01003137000F02CF811
:402EC000FFF7E2FF0120FFF7C1FF08BD9B64004008B5054B1B7823B9FFF7E0FF0122024B1A70FFF7A3FF08BD9181FF1F024B1878C0F38010704700BF8F450040000000009E
:402F00000230800803D000BF01380046FCD17047EFF3108072B6704780F31088704700BF01BE704708B5034B1B7A03FB00F0FFF7E7FF08BD2881FF1F70B504460E46074BEF
:402F40001D681F2802D90020FFF7EAFF04F01F04103455F8240045F8246070BD08ED00E038B504460D46072902D90020FFF7D8FF1F2C02D90020FFF7D3FF04F01F0000F188
:402F8000604000F564406D01EDB2057038BD00BF134B1B78DBB20360124A127843EA02230360114A127843EA024303600F4A127843EA026303600E4B1B78DBB243600D4A21
:402FC000127843EA022343600B4A127843EA024343600A4A127843EA02634360704700BF0301004904010049EC460040020100490101004900010049050100490601004948
:40300000014B1B681866704708ED00E04001C0B2014B1870704700BF08E400E04FF48072014B1A60704700BF00E100E04FF48072014B1A60704700BF80E100E010B50446FB
:40304000FFF7F4FF2046FFF7DBFF0720FFF7DEFFFFF7E4FF10BD00BF014B1B681865704708ED00E04001C0B2014B1870704700BF04E400E01022014B1A60704700E100E0C5
:403080001022014B1A60704780E100E010B50446FFF7F6FF2046FFF7DFFF0720FFF7E2FFFFF7E8FF10BD00BF014B1B689865704708ED00E04001C0B2014B1870704700BF30
:4030C00006E400E04022014B1A60704700E100E04022014B1A60704780E100E010B50446FFF7F6FF2046FFF7DFFF0720FFF7E2FFFFF7E8FF10BD00BF014B1B68D8647047E9
:4031000008ED00E04001C0B2014B1870704700BF03E400E00822014B1A60704700E100E00822014B1A60704780E100E010B50446FFF7F6FF2046FFF7DFFF0720FFF7E2FF74
:40314000FFF7E8FF10BD00BF014B1B68D865704708ED00E04001C0B2014B1870704700BF07E400E08022014B1A60704700E100E08022014B1A60704780E100E010B5044637
:40318000FFF7F6FF2046FFF7DFFF0720FFF7E2FFFFF7E8FF10BD00BF014B1B685865704708ED00E04001C0B2014B1870704700BF05E400E02022014B1A60704700E100E025
:4031C0002022014B1A60704780E100E010B50446FFF7F6FF2046FFF7DFFF0720FFF7E2FFFFF7E8FF10BD00BF08B5124B1B7803F00303012B02D0022B04D00FE00D4B1B79B4
:40320000DBB20CE00B4B1B7903F07F0303EB43039B00094A13449B78DBB200E00023074A1268D35C022B02D1FEF77CFB08BD002008BD00BF006000408C82FF1F7882FF1FE7
:403240000E4B70B51E460E4C0025E41AA410A54204D056F8253098470135F8E700F0FEF8084B094C1E46E41AA4100025A54204D056F8253098470135F8E770BD6834000005
:4032800068340000683400007034000010B5431E0A44914204D011F8014B03F8014FF8E710BD03460244934202D003F8011BFAE77047000000000000004F004030000051D6
:4032C00000407000C0510040100000000140001000140140000800400140000A004C01400002005001402000303132333435363738394142434445460000000001000000A1
:403300000433000001000000483400000000000000000000010000001C330000010000000434000003000000483300000000000000000000000000000000000000000000D2
:4033400044330000020A000000008103080002000100820240000A000100030240000A0002030000040309042C0343007900700072006500730073002000530065006D00A7
:40338000690063006F006E0064007500630074006F007200100355005300420055004100520054003803430044004300200043006F006D006D0075006E00690063006100D9
:4033C000740069006F006E00200049006E007400650072006600610063006500260343004400430020004400610074006100200049006E0074006500720066006100630089
:4034000065000000090243000201018032090400000102020103052400100104240202052406000105240100010705810308000A09040100020A00000407058202400000BC
:4034400007050302400000001201000202000008B40432F20100010280010000F8B500BFF8BC08BC9E4670474D000000E1120000F8B500BFF8BC08BC9E4670472900000014
:40348000903400000881FF1F30000000E80100000000000000C2010000000800C201000000080000A120000000000200000000000000E02EC05D00001800000000366E0147
:4034C00000000000000000000000000000000000000000000000000000000000000000000000000000000000000000000000000000000000000000000000000000000000CC
:40350000000000000000000000000000000000000000000000000000000000000000000000000000000000000000000000000000000000000000000000000000000000008B
:40354000000000000000000000000000000000000000000000000000000000000000000000000000000000000000000000000000000000000000000000000000000000004B
:40358000000000000000000000000000000000000000000000000000000000000000000000000000000000000000000000000000000000000000000000000000000000000B
:020000040003F7
:0200000480007A
:4000000001450040084F0040015200400264004001030140010501400107014001090140330A0140170B0140040C0140030D0140330E0140150F014002170140021901402A
:40004000064001400B41014015420140074301400447014004480140024C014003500140035101407E0201800A4B0D80164B1980224B25802E4B7C408B0D8F0DEE04EE033D
:40008000EE04AB20405449FF4AFF4BFF4F0150185A045D095F016040624064406540668068806A806C806E809201AE01B001B401BE01C015C5ECC602C807C9FFCAFFCBFF3C
:4000C000CD83CE03CF01D018D280D401D804DA04DB04DC09DD99DF01E040E240E440E540E680E880EA80EC80EE800F8017801E801F204280478048014D044F81568057402C
:400100005D045E805F0174017780AA40AD20C210C480D011D218D6D0B822BE11D804DF0119201A80AB20405449FF4AFF4BFF4F0150185A045D095F0160406240644065409D
:40014000668068806A806C806E809201AE01B001B401BE01C015C5ECC602C807C9FFCAFFCBFFCD83CE03CF01D018D280D401D804DA04DB04DC09DD99DF01E040E240E440D4
:40018000E540E680E880EA80EC80EE800F8017801E801F204280478048014D044F81568057405D045E805F0174017780C210C480D011D218D6D0EA02EE0AEA02EE0A338197
:4001C000364037083A80CCF0CE103004322036849E809F09A280A640A780AA80CCF0EE201348140416805B025F026320672093209B029C049E809F09A310A664A780AB12A5
:40020000AF10C4F0D6C0D8C0EEC09F01A640A780AA04AE20AF40EE2008080B040F40C20EAE40AF81EA40EE50AC08AF4401010D010F0100EA01FB0203400000000000000093
:40024000C0000000000000000000000000000000000000000000000000000000000000000000000000000000000000000000000000000000000000000000000000000000BE
:40028000000000000000000000000000000000000000000000000000000000000000000000000000000000000000000000000000000000000000000000000000000000003E
:4002C00000000000000000000000000000000000000000000000000000000000000000000000000000000000000000000000000000000000000000000000000000000000FE
:4003000000000000000000000000000000000000000000000000000000000000000000000000000000000000000000000000000000000000000000000000000000000000BD
:40034000000000000000000000000000000000000000000000000000000000000000000000000000000000000000000000000000000000000000000000000000000000007D
:0200000490006A
:0400000000004005B7
:0200000490105A
:04000000BC90ACAF55
:0200000490303A
:02000000A0AAB4
:0200000490402A
:4000000000000000000000000000000000000000000000000000000000000000000000000000000000000000000000000000000000000000000000000000000000000000C0
:400040000000000000000000000000000000000000000000000000000000000000000000000000000000000000000000000000000000000000000000000000000000000080
:400080000000000000000000000000000000000000000000000000000000000000000000000000000000000000000000000000000000000000000000000000000000000040
:4000C0000000000000000000000000000000000000000000000000000000000000000000000000000000000000000000000000000000000000000000000000000000000000
:0200000490501A
:0C00000000012E16106900012E2AB11319
:00000001FF